:06000000020011020239AA
:03000B000200BC34
:03006A0002000E83
:03000E0002006D80
:10006D001200A812023012011E80FBAE82AF837DFA
:10007D00008D037C00C3EB9EEC9F500C7C6400EC68
:10008D0014FBFC70F90D80E922AE82AF838E048FD4
:10009D00051EBEFF011FEC4D70F322AE8943060114
:1000AD008E89758CFF758A00D2A9D2AFD28C22C0F1
:1000BD00E0C0D0758CFF758AA4C3E50A950850047D
:1000CD00D2958002C295C3E50A95095004D2968057
:1000DD0002C296050A74CE250A5003750A00D0D0C7
:1000ED00D0E032858208850B09747AB50C04D29064
:1000FD00C2917466B50C04C290D291747AB50D0498
:10010D00D292C2937466B50D04C292D29390000040
:10011D00227F0030A00B30A10830A20530A3027F52
:10012D000130A00B30A10820A20530A3027F0230C0
:10013D00A00B20A10830A20530A3027F0320A00B45
:10014D0030A10830A20530A3027F0430A00B30A1EE
:10015D000830A20520A3027F0520A00B20A10820B6
:10016D00A20520A3027F0630A00B30A10820A20516
:10017D0020A3027F0730A00B20A10820A20520A3F9
:10018D00027F08EF24F75003020221EF240A83F5C2
:10019D0082EF240D83F583E47321B821C7D6E5F4EE
:1001AD000312020102010101010202750B50750CCF
:1001BD0066750D7A7582500200F0750B50750C66E0
:1001CD00750D7A7582000200F0750B50750C667511
:1001DD000D7A7582000200F0750B00750C66750DB9
:1001ED007A7582320200F0750B00750C66750D7A0A
:1001FD007582000200F0750B50750C66750D7A75E1
:10020D0082500200F0750B00750C66750D7A7582C3
:10021D00000200F0750B50750C66750D7A758250E5
:0D022D000200F0D2A8D288C289D2AF2232DE
:06004000E478FFF6D8FD94
:10001E007900E94400601B7A0090023E780175A0D9
:10002E0000E493F2A308B8000205A0D9F4DAF27541
:02003E00A0FF21
:100046007800E84400600A790175A000E4F309D855
:10005600FC7800E84400600C7900900001E4F0A30D
:04006600D8FCD9FAEF
:0D00110075810D12023AE582600302000EB7
:04023A0075820022A7
:00000001FF
